:400000000008002011000000B1050000B105000010B500F0E5FB00F0D3FAC04610B572B6EE22254BD8211A60FF23244A49031360234A244C11609F21234A18201160234A03
:400040001360234A234B1A60A122234B1A600123224A1360224A13600722224B1A60224B9E32FF321A601123236000F0F9FA00221E4B1F491A601F4B1F481960FE210902B8
:4000800001601E4818601E4801601E4919601E490A601E49196004211D4B19601D4B3E3119601D4B023919601C4B013119601C4B02311960226010BD00030240000004403A
:4000C00008000440300010401800044000010440B06D18000801044018010440000204401802044000030440080304400803014042FF0080000001400003014040FF008029
:400100000403014041FF00800C03014043FF0080280003400C01014008010140040101400001014010B5064C2378002B07D1054B002B02D0044800E000BF0123237010BDA9
:40014000C00100200000000088160000084B10B5002B03D00749084800E000BF07480368002B00D110BD064B002BFBD09847F9E700000000C4010020881600006800002017
:400180000000000010B5022001F0A8F90122014B1A7010BDDC01002010B50A4A01213A2000F05AFF00F0C6FE022001F02FF9022001F016F9012001F033F9012001F01AF9B1
:4001C00010BDC04670020020F8B500250024084F084E200000F0B0FC00F00CFC0028FBD1735B01347B530235092CF2D1F8BDC046D0020020EC010020F0B5454657464E4634
:40020000314BE0B41E5C314B76009F5B304B44000500185B2F4B9846195B00F0E3FD43462D4918532D4B18530B5B9C46984225D300222B4B5A55634601329146C31A9BB2EA
:400240009F422AD36246120290464646254A9246525D32436646921B8018020A0A535246002150551E4A51559F4222D300221E4B1A531CBC90469946A246F0BD1B4A1B1AC7
:40028000925B9BB29A4211D2154E194A735D525D9A4213D901337355E8E7144A925B9A4207D94E461A00002EE1D1CBE700229146C6E74A46002AD9D01A00D8E7280000F02C
:4002C000F1FC00237355D1E7D4160000FC000020EC010020D00200200C0200205C020020C4020020200200202C020020100100202401002010B50400084B1880084B198031
:4003000000F00AFE074800F073FA200000F07CFA00F060FA00F090FA10BDC046AA020020AC020020FFFF0000F8B55F4656464D464446F0B462B6002001F00EF9002001F074
:40034000FDF8002001F024F9002001F013F9002001F02CF9002001F037F9FF2001F0C4F8884801F0CFF801F069F8FFF715FF14210120FFF7BFFF142000F008FA142000F0C2
:4003800005FA00F061FAFFF71FFF102398467E4B7E4E9B467E4F002300259946484600F0CBFB00F027FB041EFBD15B46585B794B9A46AA445346198800F014FD53464A46D6
:4003C0001880754B70539C5401239C46E1444B467C530235092BE1D14346013BDBB29846002BD8D16D4B6E4C9B466E4B99466E4B9A466E4B98465B461B78012B00D1BBE05F
:4004000000F0A8FB00F0F6FA0028FBD1002502E00135092D0BD02900484600F025FC0028F6D028000135FFF7E7FE092DF3D100F059FC53461A785B781B02134323701B0AB0
:40044000637043461B782622A37043465B78E37033782375737863753B78A35427237A78E25443469B7823714346DB786371B378A375F378E3752823BA78E254FA78013322
:40048000E25443461B79A37143465B79E37133792376737963762A233A79E2547A790133E25443469B7923724346DB796372B379A376F379E3762C23BA79E254FA7901333A
:4004C000E25443461B7AA37243465B7AE372337A2377737A63772E233A7AE2547A7A0133E25443469B7A23734346DB7A6373B37AA377F37AE3773023BA7AE254FA7A0133DE
:40050000E25443461B7BA37343465B7BE3732023327BE254727B0133E2543A7B1133E2547A7B0133E25443469B7B23744346DB7B63742223B27BE254F27B0133E254BA7BF0
:400540001133E254FA7B0133E25443461B7CA37443465B7CE3742423327CE254727C0133E2543A7C1133E2547A7C0133E2545B461B78012B00D043E700F056F95B460022C5
:400580001A703DE785010000EC0100200C0200202C020020D002002020020020DC01002070020020800000204C0200205C02002010B501F02BF803680C2B00D0FEE7FEE71A
:4005C000F8B5104E002E18D000200F4DA9682C686A68002905D00023E758043380C29942FAD1E9680023002903D0D05004339942FBD1013E1035002EE8D101F00DF8FFF7A3
:4006000093FEFEE701000000401700000121104A70B513680F4C8B4313600F48002200230E4D04E00133A1500432192B08D00100032BF7D851590133A1500432192BF6D1D4
:40064000FFF7ECFC0123024A11680B43136070BD0000104000000020B105000000000000F8B50400182806D0102302009A43202A01D001BEF8BD072600F0C0FF1B4D1C4A8D
:400680002B680700B3432B601A4B1B48E3181B78DBB21360194A1368B3431360184B0168E3181A787F23994313400B430360322000F09AFF182C03D8380000F0A3FFD9E723
:4006C00023002A681C3B9B08B243334013432B60322000F089FF183C2B68A4083440B3431C432C60380000F08DFFC3E7080F03400C0F0340CDF1FF0F180F0340100F0340A2
:40070000B4F1FF0F082800D901BE034B8000C318186819607047C04640000020F8B504000E00032900D901BE082C00D901BE032700F064FF3D00094B25409C46A408A4008B
:4007400064442168ED000B0031000635AF40A940BB431943216000F055FFF8BD00E400E01F2318401E3B8340014A13607047C04600E100E01F2318401E3B8340014A13600E
:400780007047C04680E100E001BE7047F8B5802507002D02A84214D904000B4E706800F023FF0A4B9C466444AC42F7D8084BFB18DB0BDB036744FF1AB068784300F014FFBF
:4007C000F8BD014EF8E7C0466C0000200080FFFFFF7FFFFF0022014B1A60704738000340014A024B1A6070476588EDAC38000340044A00041368000C1B0C1B0418431060BC
:400800007047C04640000340F02110B5044C0204044B206809030A4003401A43226010BD40000340FFFFF0FF0123024A11680B4313607047440003400123024A11680B43A1
:40084000136070474C000340F8B55F4656464D464446F0B44C4B1B78002B24D000F016FB00F03EFB0021002000F046FB0021002000F018FB454CFF2000F024FB402000F0D8
:40088000F7FA2368424A072013432360FFF768FF80222368D203134323603CBC90469946A246AB46F8BD3B4B0922002118009B4600F0E1FE0F203849384B0A68384C1A7070
:4008C0002378002603401A002378304C834313430B60344A344B08381A60344B344A23601168344B0B40C021C9020B431360FFF741FF31490720FFF705FF03210720FFF743
:400900000DFF23682D4923602D4B99462D4B98462D4B9A4620E000F071FE07224346A2401B68013693431F4343461F6000F06AFE012211004B46A9401B688B4349460B60E4
:40094000092E1DD053460C33F35C9B0053449A6A99699B6B9046994653460F279D5D5B46AA00D2B29740985D0B686C00BB4306272C19E4B20B60A7400128CCD10027CAE700
:40098000014B1A706AE7C046E80100200400084000100880B802002000FF0840B002002062F1FF0F0002000108000840C008A00100000240FFFFF0FFF10D0000000102409D
:4009C00000010440080104408C16000070B501210724074D0130C0B2092807D022000E0002409640C308EB5C1E42F3D070BDC046800000200120024B5B7818407047C046AC
:400A0000E8010020434BF0B54E46454681469846C1444A4648235746D35C3F4C9B00E0B4E31807005E6800F031FA00F059FA2823E419E05C0021013880B200F05DFA34235C
:400A4000E05C0021013880B200F02CFAFF2000F039FA402000F00CFA0720FFF78BFE402292462E4D07202B6813432B60FFF778FE0720FFF77FFE2A482A4B026813405246C8
:400A8000A15C0B431A00284BDB191B7E1B04134303602C68254B07201C40254B1C43FFF75FFE4B461B7B99464346DF5D00F0A6FD82460F204B46B900C9B288409B0043444C
:400AC0009A699B6A94461268984682430420884019687B00FB180727DBB29F40B9430B0041460B60634602431A60504600F08AFD00F084FD07002C60002000F075FD0D4B16
:400B000038001E6000F07EFD1CBC90469946A246F0BDC0468C16000080000020040008400800084000FF80FFE8010020FF1FDFFF200020000C000840002210B5044BC1B2CE
:400B40005A702132995460325A70FFF75BFF10BDE8010020F8B50023FF2207240120104E104D73702133F254F35CDBB20133DBB2092B07D02100070019408F40DA08AA5C94
:400B80001742F3D02122B354B35C082B07D8012371780B437370B05CC0B2FFF733FFF8BDE801002080000020F0B54746264B27491A684300CB1880B49A800F22244F3E5C25
:400BC0003B181C7B234BB1001B5CC9B28A409C46A4003B199869750003687519934303606346EDB2012B2BD00623AB40984600F005FD0722AA403C19A16A0B689343424617
:400C000013430B6000F0FEFC0122B240A16B07200B6893430B60FFF7ADFD0F4A0F4B116807200B40A02109020B4313600C4A0D4B11680B401360FFF793FD04BC9046F0BD94
:400C400000239846D3E7C0460C000840E80100208C160000B802002004000840FF1FDFFF0800084000FF80FF02000720CB08014006388840D35C1840431E98417047C04603
:400C8000072310B5CC081940063B8B400419DBB2002A03D122789A43227010BD227813432370FAE730B50025094B42001C5C094BD15A094B18180575981805840748D152EA
:400CC0001B19045D34201C54054BD15230BDC046D4160000EC0100200C020020F0000020D0020020F0B55F4656464D4644460023F0B485B003930293354B9B463549029A69
:400D00000B000C338C5CD35C334A1B19904640220093630098440023944601932F4B47466344994610E04246961BB34232DB21004846FFF799FF002801D001230193009BC5
:400D400001340237A34231D94022254B21001D5D48466B005B449A5A904654229E5A5B465B5D9A46FFF780FF3B880028DBD14644B34214DB194B34229C466544AB5C013B9E
:400D8000DBB2AB54002BD2D1333A21004846FFF777FFCCE7002221004846FFF771FF0F4B52469C4634236544EA54C0E7019B002B01D001230393029B01330293092B9DD154
:400DC000039805B03CBC90469946A246AB46F0BDF0000020041700002C0200200C020020D41600004B0018184118890888B2704770B501260720FFF7BDFC174B174D1E6023
:400E00002878C0B2FFF7D0FE154C23785BB2002B19DB2878C0B2FFF7D9FD28702B78082B15D92378B343237023785B0607D502220C490D4800F016FC02220C4B1A70072082
:400E4000FFF78EFC70BD2378B3432370F7E72878C0B2FFF7D7FDF2E71400084009020020E9010020B4020020800000204E020020044A1368002BFCDB034B00021843014BD5
:400E8000186070470000014041000080034A1368002BFCDB024A014B1A607047000001404100004010B5FF24C9002140000208430721034A13680B401843106010BDC04674
:400EC00004030140044A1368002BFCDB034B00021843014B186070470000014040000080034A1368002BFCDB024A014B1A607047000001404000004010B5FF24C900214052
:400F0000000208430721034A13680B401843106010BDC046000301401022034B1A60034A034B1A657047C04680E100E0B10500000000002010B5094C2378002B03D100F0BB
:400F40002FF8012323708021054A0906136805200B431360FFF704FC10BDC046500200200000064080220A4B5200196811420AD008490968490406D4186807490140196048
:400F800019680A431A600222044B1A607047C0460000064060000640FFFEFFFF6C00064010B50024184B194A1C60194B19491A60194B1A4A05201360194A1460194A116030
:400FC000194A1360194B1C60FFF7D4FB03210520FFF7A4FB16490520FFF794FB5222154BFF321C60144B1A600022144B1C60144B1C60144B1C60144B1C70144B1C70144B4D
:401000001C80144B1A7010BD0000064000080040600006409E00FE0007010080000306400403064010030640000206400402064089100000880E0640480F0640080F064014
:40104000C80F0640880F0640E8020020EC020020E6020020E402002070B506000D00141E0BD00520FFF786FB044B05201C60044B1E80044B1D80FFF773FB70BDF002002003
:40108000F4020020EA020020F8B54F464646B54BC0B41B68002B00D09847B34BB34D1E68B34B2C881F680223FF3333402DD02021B04A13685B005B081360AF4B1A788A43AB
:4010C0001A70102219780A431A70AC4A1268D20600D48DE0022219780A431A70A84AA94B11680B40136000238021A74A09061360A24A1360A54A13709E4A13680B4313606E
:401100002C800CBC90469946F8BDFA0601D5A04A13600A233B424CD102231F40002F1AD0F30614D50023984A1360944A1360994B1A780A23944200D1F8E08F4A3340117898
:401140000B4320218B4313700022904B1A70730658D4854B1E60864B1B685B07D0D58E4B8E4E98461A888E4BFF271B688D489C4600230F2199460DE063461B191B78013A82
:40118000DBB23360012399460368013492B20B40082B06D0002AEFD1376003680B40082BF8D14B46002B00D0D9E010227E4B1A60A6E77E4B1B685B074FD57D4B73491A6882
:4011C0000B78002B00D191E0012B7BD1724988460988002900D1ABE07648D2B20360704B01391B681B191A704346013419806CE0684A1278A24200D170E7082219780A431A
:401200001A706BE720235C4A11780B431370614B1C78694B1A68102313424FD08020674A5D4912884002121B0A80654A1168014311601068634901401160504A1360012205
:40124000614B62491A60484B196010236049086803430B60574B1A607BE7494A13689B0400D459E702231F4033D14B4B1988083989B2198008295ED800296ED000239846B2
:40128000474B4B489C466118634602681B68D2B21B1901341A708C42F6D14346002B09D18020374A000213680C00034313600022354B1A600C22474B1A602FE70422324B0C
:4012C0001A60BCE70020FFF75FFA0422414B1A6022E70F21404B1B6810681940294B03401360012398460029CAD1E3E73348008882421DD201242F480460384800888242E2
:401300001DD2801A244C80B22080072819D908281AD080201A4980010B6803430B600821194B19601B4B14001A70CEE7083B04E7FFF718FEC9E7012308219846A0E7164846
:40134000038001230B70EDE7A0240D4824020168214301600C490B60E4E72100A0E743461A8022E754020020400F0640E6020020000E064000000640EC020020880F064013
:4013800060000640FF5FFFFFC80F0640E8020020880E0640E40200205802002040020640F002002008020640800F0640CC0F0640400306406C00064064000640F4020020CD
:4013C00004020640FFFFFEFF800E0640FF0F0000480F0640C00F064008030640EA0200200721034A13688B43184310607047C046080304400121044A084013688B43DBB292
:40140000184310607047C046000304403821034AC00013688B43184310607047080304400300022004495B000A688243D2B21840104308607047C0460003044010B51B4A94
:401440001378002B1DD1C0210C20194B890019601849086018490A3808601848184908601B689B039B0F012B1DD0591E8B4115498C46634414490B600021144B1960012375
:40148000137000F0BBF80123114A11680B43136000F0B8F800F0B2F880220E4B52041A6000F0B0F810BD0C4BE4E7C0465A020020000105402401054038010540A60E00005D
:4014C00014010540A50E00000C010540080105400000054008000540A70E0000014B18607047C04630010540044A1368002BFCDB034B00021843014B1860704700000140CF
:401500004200008010B58024084B64001C60084B186600F073F8C023064A11680B43136000F070F8044B1C6010BDC04680E100E00000002008E400E000E100E0030040206D
:4015400004499B010A688243D2B21840104308607047C046000004400300202004495B010A688243D2B21840104308607047C04600000440030008200449DB000A6882436E
:40158000D2B21840104308607047C046000104400300042004499B000A688243D2B21840104308607047C046000104400300102004491B010A688243D2B218401043086049
:4015C0007047C046000104400300402004499B010A688243D2B21840104308607047C04600010440000000000230800804D0C0460138FDD1C046C046C0467047EFF31080F7
:4016000072B6704780F310887047C046014B18687047C046B80100200E4B70B500251E000D4CE41AA410A54204D0AB00F35898470135F8E700F072F8084B00251E00084CEC
:40164000E41AA410A54204D0AB00F35898470135F8E770BD28170000281700002817000030170000002310B59A4203D0CC5CC4540133F9E710BD03008218934202D019705D
:401680000133FAE77047000000000000050007000703020100000000010201010000000000000000000002400001024000020240000302400800044008010440080204404B
:4016C0000803044000000440000104400002044000030440000102030405060708000000200000000100000080000000010000008000000008000000040000000200000031
:4017000001000000000102030405060708000000010101010101010101430000F8B5C046F8BC08BC9E4670474D0100000D060000F8B5C046F8BC08BC9E4670472501000025
:4017400050170000680000205801000038010000000000000100000000007017E02E00000C000000001BB700FF0100000000FF3F0000FF3F0000FF3F0000FF3F0000FF3F3E
:401780000000FF1F0000FF1F0000FF0F0000FF0F0202020202020202020000000202020202020202020000002D2A2623201814100D000000080104400802044008010440BC
:4017C00008010440080004400800044008000440080004400800044008081405080805050500000046004D0054006200620042004D0038004D0001001E001E001E001E00A0
:401800001E001E001E001E001E00000032323232323232323200000064006E0078008C008C005F006E0050006E000000050005000500050005000500050005000500000036
:401840000000000000000000000000000000000000000000000000000000000000000000191700000000000000000000000000000000000000000000000000000000000038
:4018800000000000000000000000000000000000000000000000000000000000000000005801002000000000000000000000000000000000000000000000000000000000AF
:4018C00000000000000000000000000000000000000000000000000000000000000000000000000000000000000000000000000000000000000000000000000000000000E8
:4019000000000000000000000000000000000000000000000000000000000000000000000000000000000000000000000000000000000000000000000000000000000000A7
:401940000000000000000000000000000000000000000000000000000000000000000000000000000000000000000000000000000000000000000000000000000000000067
:401980000000000000000000000000000000000000000000000000000000000000000000000000000000000000000000000000000000000000000000000000000000000027
:0200000490303A
:02000000660494
:0200000490402A
:200000000000000000000000000000000000000000000000000000000000000000000000E0
:0200000490501A
:0C00000000020A48119A00000A4F779E87
:0200000490600A
:0100000001FE
:00000001FF